:100000000C9464090C948F090C948F090C948F093B
:100010000C948F090C948F090C948F090C948F0900
:100020000C949E540C948F090C948F090C948F0996
:100030000C948F090C940B520C948F090C948F091B
:100040000C948F090C948F090C948F090C948F09D0
:100050000C94A9540C94D0540C948F090C948F09CF
:100060000C948F090C948F090C948F090C948F09B0
:100070000C948F090C948F090C948F090C948F09A0
:100080000C948F090C948F090C948F0904020704B7
:100090000000020002040400040000040400000048
:1000A0000404040407040704000204040400040414
:1000B0000004040107040004020000000000000026
:1000C0000600020278DA9D5AE96EDC38127E156D60
:1000D00003C11EB0BD2DF5ED457ED86DCF8C3171BD
:1000E000E2F1B119EC6220C812BB9BB0AE11251F22
:1000F0003BC8BB6F1DBCA4EE64762780D122592C6F
:10010000168BC5AAAF8AF96D94D4F5E874F463929E
:10011000CBB41A1D8D1E3B9967F1B36894AC4A05A8
:1001200023DB343D0DFEF2FD7AFDD7209C9E442753
:10013000E3E051965D2B7385DD1F1F8273DDFC6B41
:10014000109D4C2727ABF149348E66E3308A805DE1
:100150005A15455266C0E8B7519229E81CC749DBD9
:1001600026E92ECEAB248B5391E771DD548F22A864
:1001700064F6FE5D1A0CBA63EE1E9DAEC223E23039
:10018000098BF1EB1FE531031E795EA5494B9D2AD2
:1001900048ABAE6C696C897B6F5BD8749CA44F864E
:1001A000931B9FCE3D822C330475A5E84796EFDF65
:1001B0007541DDC19A5DCD133C8EBF76A279B33C0B
:1001C000418027A46E846AE356A64F8A5B6D9394A0
:1001D000AA906D6C560D640927A1D75F8036739184
:1001E00034B1DA756D56BD94A3D308155C6EE43650
:1001F000D6BA354BA85AEA4D0759D226712392EC4C
:100200002D6621410DFD79A4D1FF6566A044A9AA00
:10021000264E7749598ADC89693A8A443D91B0C7AC
:10022000137F89D77C329DED2F303A9DAF1C5599B5
:10023000E4D53696A555AC16D6E3A4B56928B81909
:100240007B47E4D851A768FACC7AC7339B5BE24C72
:100250006E659BE471D5B58309CF49DE09D285D897
:10026000245DDEC6B6A3485EE3AC6B9216AE09C948
:10027000192E2C3F0106DF56758F57DA5B3C728BC7
:10028000EFB2E974B1B427D728A36C613EB2A9FDDF
:100290009AD9AFB9FD5AD82F91276FD69E40BB4E41
:1002A00073BBD745688F789BC8D29C21ED0DF66D46
:1002B0004F38CD9FAC9D2C9796818CD2C09CDAD4C0
:1002C000F19569118D57D3A5610D64F67097534B65
:1002D000966769380FA343548BE5902A7E91ED0E03
:1002E0000CA17DDCA70FB09BE5C3B94EE5B9545115
:1002F000F6E22C43C5FDCFB87DABE9DC8010F62ECD
:100300006BD3015CDC76BEE24E54A5E28DCCC19E7F
:10031000ACD8C791DB5D51772B70780775105AAA5E
:100320005254B57C15F9C0C2E89229F91F9065D7DF
:10033000816B6D63B42CCF2928015D7060EE5C6722
:100340006EE9FAA53860B5E91B380AC743DBECAEA5
:100350001B5A31F4EC99F1746699BB6D1BFE48ADE4
:10036000448AC44AABC11D1F5CECA11CE84A5BF97E
:100370002CE29DDCEE68C2A4476F5DD901EF638675
:10038000E2426DDFBFFB1B4490C9A43717CD042D9B
:100390003755D63227CE2054BB58397F98AA03064A
:1003A0001E28B00BF3F956A671FF02056991C5C36B
:1003B0003B355B792B88BA76BAC1A6B6CC20938D33
:1003C000F9640F4EC48EAACB95F098466E63ED4E3D
:1003D000344505DEABCEC501A5F8C3CE82E7CE9B82
:1003E000B445DA258D3588E635DE737D416B3BD12A
:1003F000DC5A5908DE9AB3D5B6417D38B58E8F46A2
:100400009978ECC0882B000B2BD3022E5B32603E18
:100410009FD09261D008AA26130DAE07D1B2611702
:100420001919829746B6628F022D95094114518899
:10043000662BCAF42D465F0A424017FBD578571544
:10044000622F98AAA4A87DABD76D1BA3FAC116444E
:1004500077BE9CB76B75DCC8ED16AE3A6C4255ECB6
:1004600068A2995B9C4239C894B4C22A089DC146CF
:100470004204837B1CB30E83B449D90B1F8DB67025
:1004800085494E50B26E110DF81E6E76359E025C97
:10049000BEA3910E0770CD4A70454566A31D7EB37D
:1004A0009EE7E1800C8F20F082B62683E320BFFF19
:1004B00007C1D21284435FC687A9ED49D05D0CB055
:1004C0002FCE858ED02B26444F05EED6F783D02431
:1004D0002F06CAC25F3C67A1D8E8A7A19BA55EFC16
:1004E000897045EDB5CC12CF80BD4BD363359F32BB
:1004F0002B6D5543454C41113213652B3780C13666
:100500001B5891AEB7C50D2089893D30D67DC5C039
:10051000DA1D2CB8ABF28C1ADF369940344DD53346
:10052000A105D8C150D3FE32FF27C3AF8148B42301
:10053000708AA496E3E8C09A87CCF7385AEC13E2A5
:10054000B9001EDD3A37946C44FBC6174A61487AFD
:10055000FF4E0E3B9357EC6C93465F3C454DBD9967
:100560006D931424247DC4E03BCDED9428035C0DF1
:100570001323C9ACAD78B3C81BE9EACC89CEE87BBC
:10058000D779873D033FC17B1C40E29E9EC0898D89
:100590000774A493CEC592E5CA27E861E421ABE9CC
:1005A0001EE590D9CA93AA878607ACE6CB01DD90F9
:1005B000D17C61098680F90F7AC2C279428D075CCD
:1005C0008BCE1FE092489F3C983D098D0C03946DA3
:1005D00025A82B30A3E1FA5E109D19063D5C3AD0A8
:1005E000C572DEA3DA3B1FCB640842877C2643C278
:1005F0003D5691A11800D501A7C5744047377870C2
:10060000991656AE3E261DF20AFB64439916D63E55
:1006100007F072B8BB21DD1E236BC73C30D8231016
:1006200058FD1C021F5FF1339ED5F48C861B007AA7
:100630002016669ECDCC592B9D38946CD9352A1F37
:10064000E68676CA00E55A726BA8E0E3A786181121
:1006500056E0B205D130A830EE7E47A1037EC1E757
:100660004470EE04B0D1FD4CF43731E0703D5C10C5
:100670006680B691C6DFC4205504C1277B44B4050B
:1006800082E596670FA3C3A4394F2AC5AB16014074
:10069000A48D65B2619C11329151C8EFE07D500B81
:1006A0008AE2B2179CCB88DC702E7D3C0F3A129BFD
:1006B0000DA65E3120438DF0F1B60F58E829363093
:1006C000703396D9ABCE96C6141A2A15EADF48FFC6
:1006D0004EF4EF54BBFCD53E6BEF2EED31C63166C8
:1006E0008D5F213341704AA9840B195E38984CCD37
:1006F000680F9B6097C6264595090FA3C094B99BC8
:10070000D20726855495812345A5E4A19CC2B01B40
:1007100062FCF984B9528D67E37CA6272AD83B672F
:100720002DDF027FB3659FEA30F69B2D908AF2930E
:10073000180126C449E91D1998DBCA1110ACC5ABD4
:10074000C771FA20228119B0B0CE2E7ABA26D065B0
:100750004121076C38123D1B95A831C981DBB47467
:1007600074AD9FB588BA6A346466D7436D6BE0E2B6
:10077000B59680307C80BEB29C06BBF08940290CC7
:100780001F0E3921EFFE4EBF984C08CB966717EB32
:10079000F8FAEC67CC6FD0499C3FDCC537571FEFA8
:1007A00030071D9D8E6ECEE74737E733F85B8CBC74
:1007B000C1F68506D7E3A39B750803EB0F9FD63FD1
:1007C000C6DFDD5EFE84577D4CFF8E46D7EB07A06B
:1007D0004ADA426C93305A4E6BA0BCF97CCDCB45C3
:1007E00018266F2FD79757FFBC8C3F5F7DBCF8F45E
:1007F00019CF2DC2CEBBCB5BE864314423931C17C9
:10080000BB80C52E703118BD3AFB109F9F3D5C60C8
:100810002E358B70ADBBFBB3FBBBF8EEE1FAEE27D8
:1008200018B9BBC405E6D87D797373791B7FBAB953
:10083000BFBABEFAD7E545FCF011FB18369B51FC58
:100840008DCF3FDDFF105F5E7C0F53C32F98107577
:1008500090A251E580CABB7EA505DB80C8095A93EA
:100860009EC65F18A203118E917AB0AF578EC191C8
:100870000F5777D1056C141687CFC9C50FBC18DC8C
:100880002E1CBD391B8F4EFF3D3E5AFE028A3AC7D1
:10089000EF257FAFF11B7C28352EB00139D9F297B7
:1008A0002F7CE9F4AA5612F41F128DAE810C16DCCF
:1008B0008B3EE680CC61C3B0878B746739154003EB
:1008C00093DD65ECDED7491994550B1E0AFEAA0D7F
:1008D00078E29782DD7040561ABCEC247CB3B5A94F
:1008E000A086FB022B71FC30733B2508AE3761B04C
:1008F000A99A00CEFD1FA62D158E66D44F5D8A9352
:100900001C98FAE716E357A0E41604829C24699128
:100910003AD162B273E78455132B244523E7B49A86
:100920007B29D2116B90549481A965D8F960656BCD
:100930002EDD0775D2808D71024219AB196804440F
:100940005CD552E9FCBB04F69B056D15906FC07237
:10095000215D694E43BFE32A92891BB2CCC46B90E0
:10096000270DDE53D842D92B2C711DF7879F111903
:1009700062A9F2EFBA54D93B9D203C9E724DFE2AEB
:100980005A071FCFD63F322EC51658FAEDBDE91BC8
:10099000FB7DB79767177A003D060EDCB37362677D
:1009A00074C5B825308566579267F8C0F1C450E920
:1009B000B70D4AEA5D1F90A1CA9242C096B9B663CC
:1009C000068B0A02AFD65A80353FF4356ED85608EA
:1009D0006D4D9073EBBD719D03D9F5279EE870D0E6
:1009E00001DF25ACB6985EACCD198F866ED0EBE7F3
:1009F00094D789ACB8C865287A98106FAAE68EE9B2
:100A0000FB75F28A07B234FAE2D8790D69790227C8
:100A100024CA1462A1B11B1C900A8D5A413E9175E3
:100A200039D68E6032E29D40BB633A61F12C50D1E1
:100A30000875BE3E61973419DD394D8DA5C16BD463
:100A40002E61C000BE9A4D5EBD3088FC08972D090E
:100A5000783B78CBC997601CF507E0FAF1C07C3091
:100A6000439635232D7E32A0A1122575DD0BF2DAD7
:100A7000F61242FE8C196E01A227B8B70D847B9046
:100A800012942DD07F2012B8157A537867F082C364
:100A900032A86A3806BC50E8F9EF28B3D6D6DE088B
:100AA0007C91C3D958FCBDB373F71417BCC83C87FD
:100AB0000099C252BDE22E877C37D32AEF1B33F058
:100AC000E9E50EFC041F2FC98614B2E80AD367AE0D
:100AD000050A6C6AB9F44A05CCC8B39097F41FAC08
:100AE000EEB4AB69AB2AD824B471DE3416D1EE7DF6
:100AF0006B436D022195AC391CDD93AA702660030F
:100B000025A828F850AAAE467C20D8ED90AFC7A7FC
:100B10008FCF499BEEB26ACB0AFE1397495D2E2F09
:100B2000CD8DF5DEAEF8956D9FE6D0BB173FF0D1C9
:100B30006B220C74E513088A3E905F82BC7EE5064A
:100B4000E8095151AC23593B273BA7306E945766B7
:100B5000046F7BF11AF7E7B86A3DBBF4AACC210A0F
:100B60003CC382C9636E9CBB55FF0ACB94AF228BFA
:100B70008B2E3FF56E09967E0745198C2A5608ACD8
:100B8000C0A0BCAD7196588244A49B0703698190B4
:100B9000DE556D40D2AFAD1997871556E1D097B3AA
:100BA000D1A7304CDBF0F3003219B843200AD8BF8C
:100BB0002C01B89AD04BC05257B809F8A229501C42
:100BC000E1DA7FAFD2E40F6255E800F4C395F88410
:100BD000F13141473FF62108780129EC15DC112A53
:100BE000003C9B84CBD98C508A6ECC09EB70633E61
:100BF000234B87C67CBE80EFC917423A295811CCD7
:100C00001FE1A3F9F7371F9E27234A396BF09C8217
:100C10001FC84D49A79F06514A7828E93D46959A35
:100C200027E6DE94C42BD870B6C479C1313D226367
:100C30006AEB50F8B17BB90C108DD1170175AA6021
:100C4000639FB1204A82C06C629B4CE3747A7DA0A2
:100C500042D0B7E4D653F447ECAD3F75CF060AAEA9
:100C6000BA7D0538C6E068CAEE3DCEBBAA8068B042
:100C7000BF865FD5C7F991AB60C746D35E1D85DAE5
:100C80005A314B5723F6486DB19853AB1324C56ABC
:100C9000B2534930C4925A2B915754DEAB12791B90
:100CA0003026EBE9233A508CF527C3EA3CDFE43ADF
:100CB0003E1FAFA28010C7D64DB56E4DFEDBA529F5
:100CC00055CF514DE04360BBFE4BCE31864DEDF428
:100CD0001E3B486EFD2C53218029533128BC8608C9
:100CE000A0FC39BD3A942BDAE85293C9E5B8DEE1AD
:100CF000B37CEC2860665C4804F80A8E2C36BE4A49
:100D000019A383B55CBC3185CFAF1CC5B89F7AFFF2
:100D10009E29506A0C2E8610FB31426164AC9C0502
:100D2000ABAED03FEA576DA95E3A3DC8B5B9468D26
:100D3000950A4C1C7AFEA47F2607AF79C7E14F972E
:100D4000625C06BEBF05CCBD49FCB99F543BAB49B4
:100D500093F290BDECBF28A0A421BA4B4A0FF8E54E
:100D6000B6EB8DA263D4FF4308DCD973348EE6273B
:100D7000E3D5C9787C1C1D6F27229D4DC37435FABD
:100D8000F25FDAFA40C6C20C000000000500000065
:100D9000810010039500800040038C007F001D0639
:100DA0008F007E000F0395007D00140498007C00E6
:100DB00017049C007B000A02A0007A004002A500F4
:100DC00079004003A20078004002A50077004002AD
:100DD000A50076001003A70075001104AA00740096
:100DE0001104AE0073000D02B20072000B01B900D5
:100DF00071004001B40070001204B5006F000B01D7
:100E0000B9006E001002BA006D001503BC000000AE
:100E10004002BF006C000E02C1006B000901C3005C
:100E20006A000600000020002300260029000001BF
:100E3000020304050607040101010001040404047F
:100E40000000000404010101010104040101040483
:100E50000004040404000004000004040404040466
:100E6000040400000000040400000000040000006E
:100E70000000000004000000000004000200000464
:100E8000000400000407040400000404040000023D
:100E90000200000002040700040004040000040033
:100EA0000202040404040400000400040404040412
:100EB000040400040002030400040400040004000D
:100EC0000004000400000000000000000001000217
:100ED0000102C20E391D02000001000000340B03A4
:100EE000000001000000310B04000001000000F7C9
:100EF0001C05000001000000E41C0600010001B90F
:100F000000311E07000001000000B51C08000100B0
:100F100001C10EE61D09000001000000120A0A00CE
:100F2000020101B400AE1D0B00030103BE0EF50962
:100F30000C00020102BC0E831D0D00020002C20E55
:100F4000A71E0E00020002A000C1230F0003000331
:100F5000BE0E24231000020002BC0ED11F1100059A
:100F60000005B70E411F1200020002A000702013FE
:100F700000010001C10ED0241400020002BC0E3694
:100F8000201500020002A00004201600040004B393
:100F90000EA9281700050005AE0ED41E180001008A
:100FA00001C10E21251900080008A60E9E211A0075
:100FB000030003A30E69251B00020002A000F9290B
:100FC0001C00020002BC0E7D221D000400049800DB
:100FD0001C221E00010001C10E2F261F0008000860
:100FE0009B0EBE222000020002BC0E9B1F210004AB
:100FF0000003A200D3262200030002A5007D2C23BB
:1010000000030002A5003A2C24000400049C008385
:10101000252500010001C10E6D262600030003985E
:101020000EAC1E2700040003950E833C280003002D
:1010300002A500293A29000400049C00BB202A00D4
:10104000010001C10EA0262B00030003920E743391
:101050002C00030003A7005A342D000600068C0E56
:101060007D332E00020002A00055322F000500053E
:10107000870EC2333000040004AE00E634310002B3
:101080000002A00056333200040003840EDB363326
:10109000000500057F0E3E353400010001C10E97AA
:1010A0003235000400038C00543736000500057A01
:1010B0000E973537000400049C00143438000300F8
:1010C00003980E20353900030002A50055383A0078
:1010D000030002A50022383B00060006740ED53539
:1010E0003C00030002A50015393D00030002A500E5
:1010F000E0383E000800086C0E5C363F0006000633
:10110000740E47394000050005670EB139410006ED
:101110000006610E5B424200030003A30E2240431F
:1011200000010001C10E59444400020002BC0E0936
:10113000444500020002A000163E4600010001C125
:101140000E5D484700020002BC0EE3444800040064
:10115000045D0E5A404900010001C10E4A494A008F
:10116000020002BC0E34454B00010001C10E8C434D
:101170004C00060006570E743E4D00030003A30EFC
:10118000904B4E00020002A000453E4F00010001BE
:10119000C10E334A5000020002BC0EDA4551000273
:1011A0000002A000E13E5200010001C10EE14A53DD
:1011B00000020002BC0E86455400020002A000108E
:1011C0003F5500010001C10E98465600020002BCC6
:1011D0000E2E465700020002A0003F3F58000400B8
:1011E00004530E8A4C5900010001C10E48475A00B1
:1011F000020002BC0EF8465B00020002A000723F33
:101200005C000300039500EB4B5D00010001C10E83
:10121000FC475E00020002BC0EA8475F000200020D
:10122000A000A53F60000500054E0E274C6100039D
:101230000003A30E544162000400044A0E064163F9
:1012400000070007430EC9406400020002A000032B
:101250003E6500010001C10ECF4366000700073C58
:101260000EB1426700060006360E97416800020084
:1012700002A000D83F690000010000005F4F6A0033
:101280000B47004400450080010C48004400450025
:1012900020011D88008000810080001C8A008000E1
:1012A000810020001FB300B000B10080031EB40015
:1012B000B000B10020030E98009000910080000F54
:1012C0009A0090009100200011241FBECFEFD0E4BF
:1012D000DEBFCDBF14BE0FB6F894A8958091600014
:1012E000886180936000109260000FBE11E0A0E062
:1012F000B1E0E6EDFEEA00E00BBF02C007900D9200
:10130000AA32B107D9F722E0AAE2B1E001C01D92EA
:10131000AB39B207E1F70E94944F0C9469570C94D3
:10132000000010922601EAE1F1E084819581A68116
:10133000B781AC01BD015659674E7F4F4483558339
:10134000668377839659A74EBF4780931601909383
:101350001701A0931801B093190181E0089580E06E
:101360000895DF92EF92FF920F931F93CF93DF9335
:10137000C0913301D0913401209769F121978E01FA
:1013800020E030E0E0903101F0903201D090300167
:10139000AD2DB0E0209739F1C70140E050E0BA012F
:1013A0004F5F5F4F6F4F7F4FFC018A0F9B1F9183F1
:1013B0008083401751076207730790F3DC9EF001AA
:1013C000DD9EF00D1124EE0DFF1D11821082F092B2
:1013D0002F01E0922E01DF91CF911F910F91FF908D
:1013E000EF90DF900895F701F0CFFC018081A48198
:1013F000B58140855185628573859FB7F8948130AA
:1014000061F0823039F44D935D936D937C93139723
:101410009FBF08954C939FBF089511965C934E9380
:101420009FBF089508950F931F93FC01A489B58968
:1014300086898C9383A191E0892783A34481558178
:101440006681778180FF12C00085118522853385F2
:10145000400F511F621F731F82FD12C044835583CA
:101460006683778381E01F910F9108950485158528
:1014700026853785400F511F621F731F82FFEECFF5
:101480000089118922893389872F40175107620704
:10149000830B87FDE3CF80E49BE093838283B901D4
:1014A000A801448355836683778381E01F910F9160
:1014B0000895CF93DF93DC018FB7F894E091220178
:1014C000F0912301EA17FB0721F42AC0EA17FB0772
:1014D00089F0EF010190F081E02D3097B9F720916C
:1014E0002401309125012A173B0781F08FBFDF913E
:1014F000CF9108952D913C911197398328832091A4
:101500002401309125012A173B0781F72AE131E0B8
:1015100030932501209324018FBFDF91CF9108954F
:1015200014964D915D916D917C91179740930E01AA
:1015300050930F0160931001709311012D913C9114
:10154000119730930B0120930A012AE031E0309388
:10155000230120932201C3CFF894682F70E08AE919
:1015600091E00E94105784E00E94AC0ABF92CF9293
:10157000DF92EF92FF920F931F93CF93DF938C0133
:10158000DC011496CD90DD90ED90FC901797BFB6DE
:10159000F894C0912201D09123019F2D4C815D814F
:1015A0006E817F818F2DC416D506E606870B87FDD9
:1015B0001FC0FE010990D881C02D4C815D816E81D4
:1015C0007F81892FC416D506E606870B87FFF1CFEA
:1015D000D801CD93DC9311830083BFBEDF91CF91FF
:1015E0001F910F91FF90EF90DF90CF90BF900895E3
:1015F0000E94974F2F2DC616D706E806290B27FD08
:1016000025C0B1E0CA30DB0741F1F801D183C083C6
:10161000C0920E01D0920F01E0921001F0921101E0
:1016200010930B0100930A018AE091E0909323014B
:10163000809322018091840090918500C2969093BE
:1016400089008093880082E086BBC7CF8091280103
:101650008111D7CF83E00E94AC0A0990D881C02DB8
:10166000D4CF88E00E94AC0A80912801811529F02E
:10167000823011F010922801089582E00E94AC0A95
:101680004F925F926F927F928F929F92AF92BF9292
:10169000CF92DF92EF92FF920F931F93CF93DF933E
:1016A000FC01A78DB0A1109709F42FC18D919C91D9
:1016B000119790A3878F16964D915D916D917C91B6
:1016C000199791E0411551056105710509F4AAC00A
:1016D000C489D58986892FB7F8943A814115510577
:1016E0006105710509F056C0809583238A832FBF59
:1016F00020912E0130912F0111963C932E93B0939F
:101700002F01A0932E01C3A12C2F2071A78DB0A172
:1017100031E0452B462B472B09F030E024FB88278E
:1017200080F941E08427381709F47EC04789508D3D
:10173000618D728D411551056105710509F474C003
:10174000C480D580E680F7804C0D5D1D6E1D7F1D29
:101750009460109709F09BC0292B6A017B01C08A15
:10176000D18AE28AF38A23A34483558366837783ED
:1017700081E0DF91CF911F910F91FF90EF90DF906B
:10178000CF90BF90AF909F908F907F906F905F9021
:101790004F900895832B8A832FBF20912E01309183
:1017A0002F0111963C932E93B0932F01A0932E01FD
:1017B000038D148D258D368D4017510762077307F1
:1017C00008F0A1CFA78DB0A18788908CA18CB28C96
:1017D00081149104A104B10491F1C480D580E68004
:1017E000F7808C0C9D1CAE1CBF1C109709F07AC0B2
:1017F000808A918AA28AB38A83A18071876083A339
:10180000DB01CA018C0D9D1DAE1DBF1DCB2F8815A0
:101810009905AA05CB09C7FD25C084829582A682B9
:10182000B782A6CF90E054CF109709F040C0108A3D
:10183000118A128A138A922B93A380E09ACF83A1F4
:101840008071109709F03BC0108A118A128A138A9E
:10185000836083A384819581A681B781840F951FBE
:10186000A61FB71FC3E1DAE0D383C28384839583C5
:10187000A683B7834087518762877387041B150B44
:10188000260B370B048715872687378771CF12966B
:10189000CD90DD90ED90FC901597872F4C155D0550
:1018A0006E058F0987FF34C083E10E94AC0A12964F
:1018B0004D915D916D917C91159794604DCF1296ED
:1018C0008D909D90AD90BC90159787602401350157
:1018D000C480D580E680F780408A518A628A738A04
:1018E00083A38ECF12964D905D906D907C9015974E
:1018F0008B2D84149504A604870987FDD5CF83A179
:101900008071876053014201E7CF85E10E94AC0AF4
:10191000C0712C2F292BB701A60121CF2F923F9206
:101920004F925F926F927F928F929F92AF92BF92EF
:10193000CF92DF92EF92FF920F931F93CF93DF939B
:1019400000D000D00F92CDB7DEB720919901298346
:101950002115C1F00F900F900F900F900F90DF9115
:10196000CF911F910F91FF90EF90DF90CF90BF909C
:10197000AF909F908F907F906F905F904F903F902F
:101980002F90089581E0809399013E013CE1630E20
:10199000711C9091960180919501981780F010929A
:1019A0009501109296010A8D1B8D0E5F1F4FF80155
:1019B0008491813608F424C110929901CBCF0A8D0D
:1019C0001B8D0E5F1F4FF8012491482F50E05D835F
:1019D0004C83280F3327331F213631050CF417C1F0
:1019E000291B31092136310538F710929501609194
:1019F0009601861B8983E82EF12C70E06B5C7E4F8C
:101A0000A70185E391E00E945057109296015981F9
:101A1000509395018091C10080628093C100FD8246
:101A2000EC82C7018B5C9E4F9B838A83F801849173
:101A3000082F863008F474C1AA81BB8112968550A4
:101A4000990B7D01E80EF91EEA8DFB8D33964491CA
:101A5000EA8DFB8D3496259135916901EA8DFB8DD8
:101A6000859195918038910568F0AA81BB81139684
:101A7000BC01660F672F661F770B71956068EA815E
:101A8000FB8162838F778D935D0188248A94840E15
:101A9000411509F489C02F5F3F4F820E932E911C90
:101AA00033C09AEF980F923008F03DC1F3012081C6
:101AB000318117012A183B08032C000C44085508F3
:101AC000A901330F660B770B241635064606570619
:101AD00010F4B201A101D5014D935D012301B4E0E1
:101AE0004B0E511CF301228133818A01B9018630EA
:101AF00009F4F8C0C5010E944757A00EB11E32017B
:101B0000C814D90409F450C0EA14FB0408F40BC14A
:101B1000F6018491FFEFCF1ADF0A853009F47DC00A
:101B200008F0BFCFD301823008F495C04D915D918C
:101B30003D01833009F4DAC060E070E08A019B0166
:101B4000005E1F4F2F4F3F4F003811052105310513
:101B500008F4C6C00052104F2F4F3F4F01151044DC
:101B60002105310568F0D5018A019B019EE036957B
:101B70002795179507959A95D1F700680D935D0104
:101B8000D5018A019B0187E0369527951795079522
:101B90008A95D1F700680D934F77FD0141935F015E
:101BA000C814D90409F0B0CF85012A813B81021BFA
:101BB000130B602F0D5FEC81FD81EB5CFE4F00830A
:101BC00080910901AA81BB8111968C931197CD0157
:101BD0000E946B4F2A803B80200E311CF10133970D
:101BE000919381938EE780838981800F8093950103
:101BF0008091C10080628093C10010929901AACEA9
:101C0000A5E3B1E0BB83AA831D821C820FCF4B5C8E
:101C10005E4F5B834A83898309CFD3012D913D9128
:101C20003D01F5013196D9014C912F5F3F4F411194
:101C300007C00DC04193D9014D919D01411519F087
:101C4000EE15FF05B8F3AF014A195B094150D50104
:101C50004C935F0155CF4D915D916D917D913D010B
:101C60008A019B01005E1F4F2F4F3F4F0038110527
:101C700021053105A8F10052104F2F4F3F4F01159C
:101C8000B0E41B072105310508F47ACF1051284F25
:101C90003F4F01151105E0E22E07310508F463CF2F
:101CA00028503C4FD501011511052105304158F050
:101CB0008A019B01FCE13695279517950795FA95C2
:101CC000D1F700680D938A019B01E5E136952795D0
:101CD00017950795EA95D1F700680D935D0143CFFD
:101CE000D5015ACFC5010E94315707CF052E000CF0
:101CF000660B770B8A019B01005E1F4F2F4F3F4FF2
:101D0000003811052105310558F30052104F2F4FAF
:101D10003F4F011510442105310508F024CF30CF85
:101D20006DEF680F48CF86E00E94AC0ACF93DF9337
:101D3000CDB7DEB7E6970FB6F894DEBF0FBECDBFC6
:101D40000E94974F2B013C018E010F5F1F4F18011E
:101D500080912601811509F493C30E94974F461A7A
:101D6000570A680A790AF8948091260181110C9427
:101D70008B1878940E94974FA3019201260F371F6A
:101D8000481F591F2BAB3CAB4DAB5EAB81E0809342
:101D900026018091B101811511F11092B10190914C
:101DA000C0012091BE013091BF011FEF81E0810F82
:101DB000E82FF0E0EE0FFF1FEE0FFF1FE20FF31F03
:101DC0000BC0BF016C5F7F4F408151814F52564223
:101DD00009F4CEC6FB018F5F182F891790F380910D
:101DE000B201811511F11092B2019091C0014091A0
:101DF000BE015091BF011FEF81E0810FE82FF0E09D
:101E0000EE0FFF1FEE0FFF1FE40FF51F0BC0BF010A
:101E10006C5F7F4F208131812B593F4109F4DAC635
:101E2000FB018F5F182F891790F38091B301811503
:101E300011F11092B3019091C0014091BE015091F7
:101E4000BF011FEF81E0810FE82FF0E0EE0FFF1FD1
:101E5000EE0FFF1FE40FF51F0BC0BF016C5F7F4F3C
:101E6000208131812655334309F440C6FB018F5F41
:101E7000182F891790F38091B401811511F11092F8
:101E8000B4019091C0014091BE015091BF011FEF7C
:101E900081E0810FE82FF0E0EE0FFF1FEE0FFF1F34
:101EA000E40FF51F0BC0BF016C5F7F4F20813181B4
:101EB0002E53354309F430C6FB018F5F182F891765
:101EC00090F38091B501811529F11092B50190919F
:101ED000C0016091BE017091BF01FF24FA940EEA27
:101EE0001DE081E08F0DE82FF0E0EE0FFF1FEE0FF9
:101EF000FF1FE60FF71F0BC0AF014C5F5F4F208144
:101F000031812052354309F4B9C5FA018F5FF82EAB
:101F1000891790F38091B601811521F01092B601D6
:101F20000E94F64C8091B701811511F11092B70112
:101F30001FEF9091C0016091BE017091BF0181E0DF
:101F4000810FE82FF0E0EE0FFF1FEE0FFF1FE60FEF
:101F5000F71F0BC0AF014C5F5F4F208131812651CD
:101F60003E4309F492C2FA018F5F182F891790F34C
:101F70008091B801811521F11092B801AA24AA9488
:101F80004091C0016091BE017091BF01FF24F394A4
:101F9000FA0CEF2DF0E0EE0FFF1FEE0FFF1FE60F24
:101FA000F71F0BC09F012C5F3F4F808191818A55A5
:101FB000904409F478C2F901F394AF2CF41690F32D
:101FC0008091B901811531F11092B9016091C00180
:101FD0002091BE013091BF01EE24EA9448E1642EC5
:101FE000FF24F394FE0CEF2DF0E0EE0FFF1FEE0F39
:101FF000FF1FE20FF31F0BC0AF014C5F5F4F8081EB
:10200000918185549E4309F4A6C4FA01F394EF2C00
:10201000F61690F38091BA01811521F11092BA0160
:10202000AA24AA944091C0016091BE017091BF01A1
:10203000FF24F394FA0CEF2DF0E0EE0FFF1FEE0FEC
:10204000FF1FE60FF71F0BC09F012C5F3F4F8081E2
:102050009181815E9E4309F471C2F901F394AF2C22
:10206000F41690F38091BB01811521F11092BB0110
:10207000AA24AA944091C0016091BE017091BF0151
:10208000FF24F394FA0CEF2DF0E0EE0FFF1FEE0F9C
:10209000FF1FE60FF71F0BC09F012C5F3F4F808192
:1020A000918180519F4309F4A5C2F901F394AF2CAB
:1020B000F41690F38091BC01811511F11092BC01CE
:1020C0000FEF4091C0016091BE017091BF0111E01E
:1020D000100FE12FF0E0EE0FFF1FEE0FFF1FE60FD6
:1020E000F71F0BC09F012C5F3F4F808191818A5861
:1020F0009C4409F4DBC2F9011F5F012F141790F310
:102100008091BD01811511F11092BD010FEF409139
:10211000C0016091BE017091BF0111E0100FE12F6D
:10212000F0E0EE0FFF1FEE0FFF1FE60FF71F0BC0D3
:102130009F012C5F3F4F808191818B5E9B4409F40E
:1021400060C3F9011F5F012F141790F38091C10143
:10215000811511F11092C1010FEF4091C001609102
:10216000BE017091BF0111E0100FE12FF0E0EE0F02
:10217000FF1FEE0FFF1FE60FF71F0BC09F012C5F25
:102180003F4F8081918187529C4409F4B2C3F90189
:102190001F5F012F141790F3A8958091C20181153C
:1021A00029F080E4809360001092C20100918402C3
:1021B000011509F480C01091C30110FD20C0053045
:1021C00008F479C0C090C4018BEF8C0D8C3308F0FB
:1021D000C0C7D090C5018D2D807F803169F40C156A
:1021E00008F469C08C2D90E0FC01ED53FE4F208176
:1021F0002E3711F40C94DA1811601093C301402F9C
:1022000050E06EE770E084EC91E00E943A579C0148
:10221000C02E892B41F01E7F1093C301245C3140F6
:10222000CC24C394C20E0FEF11FD0CC012601093AA
:10223000C3018AE89DE09F938F930E948E0C0F90BC
:102240000F900FEF60E010918402F12EFC181C112A
:102250000DC09FB7F894809184021817F9F09FBFC2
:1022600010918402F12EFC181C1599F3862F90E032
:10227000EF2DE61BFF0BAF016C0D7727771F6C531B
:102280007E4F8C539E4F0E945057109226016F2D07
:102290009FB7F894809184021813E1CFF0928402E2
:1022A0009FBF013041F48AE89DE09F938F930E9485
:1022B0008E0C0F900F900E94974F2B013C01C30191
:1022C000B2010BA91CA92DA93EA9601B710B820BA1
:1022D000930BC0909502D0909602E0909702F090F8
:1022E00098021FEFC11AD10AE10AF10AC0929502C1
:1022F000D0929602E0929702F0929802809091021A
:1023000090909202A0909302B0909402860E971E35
:10231000A81EB91E8092910290929202A0929302FE
:10232000B09294026115710521E08207910508F0D1
:10233000ACC400918D0210918E0220918F023091D9
:1023400090020BAB1CAB2DAB3EAB9B01AC010E94D2
:102350003C56DC01CB0181509F4FAF4FBF4F892FBF
:102360009A2FAB2FBB270BA91CA92DA93EA9800F23
:10237000911FA21FB31F0BA91CA92DA93EA980174D
:102380009107A207B30718F48FEF9FEFDC0180934A
:102390008D0290938E02A0938F02B0939002409191
:1023A000890250918A0260918B0270918C02930194
:1023B0008201041B150B260B370BB901A80141152F
:1023C000544B644C744008F4C3CCBF93AF939F93B9
:1023D0008F93BF92AF929F928F92FF92EF92DF9274
:1023E000CF9288E09EE09F938F930E948E0C0FB651
:1023F000F894DEBF0FBECDBF8091890290918A0212
:10240000A0918B02B0918C02481659066A067B0691
:1024100098F48091850290918602A0918702B091F4
:1024200088020196A11DB11D8093850290938602BA
:10243000A0938702B09388024092890250928A0248
:1024400060928B0270928C0210928D0210928E021A
:1024500010928F02109290021092910210929202AA
:10246000109293021092940210929502109296028A
:1024700010929702109298028091260181116DCCE2
:102480004BAA5CAA6DAA7EAA81CC0280F381E02DC2
:10249000309709F46DCD868580FF51CD612FCF0136
:1024A0000E940B4E46CDC280D380C114D10409F4E2
:1024B00087CDF601878580FF69CD8189803308F457
:1024C00011C6D6011E968C911E97811509F448C637
:1024D000813009F497C6F60177964F0180E3D60163
:1024E00056968C9356979F928F921F928F935396E6
:1024F0008C9153978F9352968C918F931F92FF924A
:1025000086E99DE09F938F930E948E0CF601168AB8
:10251000828993890196938B828B81898053818BE9
:102520000FB6F894DEBF0FBECDBF803308F472C47F
:102530001092260181E08093B80122CDC280D38021
:10254000C114D10409F48ECDD60152968C915297C4
:1025500080FF6ECD50968D919C915197C09708F455
:10256000EBC384E789834601B8E18B0E911C84019B
:1025700020E3A10161E0F601848595850E94DE3AA1
:102580000E94113A20E3D60157962C935797509604
:102590008D919C915197C09751969C938E93509793
:1025A0009F928F921F922F9354968C9154978F9352
:1025B00053968C918F931F92FF9286E99DE09F9393
:1025C0008F930E948E0CF601178A83899489019655
:1025D000948B838B0FB6F894DEBF0FBECDBF80897E
:1025E0009189C09708F4CFC31092260181E08093AF
:1025F000BA0118CDC280D380C114D10409F45ACDD8
:10260000D60152968C91529780FF3ACD50968D917B
:102610009C915197C09708F41BC482E789834601B7
:10262000B8E18B0E911C840120E3A10161E0F60169
:10263000848595850E94DE3A0E94113A20E3D601F6
:1026400057962C93579750968D919C915197C09780
:1026500051969C938E9350979F928F921F922F9397
:1026600054968C9154978F9353968C918F931F927D
:10267000FF9286E99DE09F938F930E948E0CF60156
:10268000178A838994890196948B838B0FB6F8946B
:10269000DEBF0FBECDBF80899189C09708F4FFC30C
:1026A0001092260181E08093BB01E4CCE280F380AC
:1026B000E114F10409F424CDD70119968C911997EE
:1026C000811509F404CDF7017085272F30E0428988
:1026D0005389C4880588F689E02D5796DC90295ED9
:1026E0003F4F80E090E0A0E0B0E03F01F894F301BC
:1026F000D08200000000D082FA0160817894880FB7
:10270000991FAA1FBB1F6C2188248394912CA12C94
:10271000B12C611101C0812C88299929AA29BB29D2
:102720002150310918F7F894F70121851186789422
:102730004C015D01072E04C0B694A794979487942A
:102740000A94D2F7A7FE02C0BB24BA9441E050E03D
:1027500001C0440F7A95EAF7415050E060E070E024
:1027600084239523A623B723481759076A077B07B5
:1027700009F493C440E030E020E080E890E8D7011D
:102780001E964C931E971F963C931F9750962C9322
:10279000509751968C9340E030E020E0F701848D13
:1027A000E80FF11D258F368F478F90A38C5FD701DF
:1027B0005C968C935C97803308F483CC9701235EFE
:1027C0003F4F3F932F931F928F9359968C91599718
:1027D0008F9358968C918F931F921F9386E99DE05B
:1027E0009F938F930E948E0CF701148E808D918D94
:1027F0000196918F808F0FB6F894DEBF0FBECDBFCC
:1028000060CCE280F380E114F10409F49FCCD7019D
:1028100051968C915197811509F47FCC1A821982B7
:102820001B82910143E061E01F968D919C910E9473
:10283000452AF701118A29818A8190E0A0E0B0E061
:10284000BA2FA92F982F8827A22B2B814C015D012D
:10285000822A88279927A078BB27892B8A2B8B2B44
:1028600011F0BB24BA94F701E65BFF4F0190F081B1
:10287000E02D309741F082A580FF05C0B501A4018D
:10288000CF010E94AA4FD70156968C91F701E80F0D
:10289000F11D878A908EA18EB28E8C5FF701868B98
:1028A000803308F434CC9701295E3F4F3F932F9338
:1028B0001F928F9383898F9382898F931F921F9387
:1028C00086E99DE09F938F930E948E0CD7015696C8
:1028D0001C92569752968D919C91539701965396C0
:1028E0009C938E9352970FB6F894DEBF0FBECDBF68
:1028F0000ECCE280F380E114F10409F44DCCD70151
:1029000055968C915597811509F42DCC82E1F101F2
:1029100011928A95E9F791015A964C915A9761E084
:1029200053968D919C910E94452AF701158A8981C1
:1029300082FFD3C280E090E0A0E0B0E48487958776
:10294000A687B78720E030E040E050E4612FC70160
:102950000E94FA4E02CCC280D380C114D10409F483
:1029600059CBD6011E968C911E9780FF39CB1C96B1
:102970008D919C916AAA810122E0AE014E5C5F4F6D
:1029800061E00E94DE3A0E94113A89819A8198277B
:1029900089279827F894F60126852E7F2687789434
:1029A00083FF65C08388912C5401B4E1AB0EB11C48
:1029B000AC0CBD1C848595851982850122E0A1019E
:1029C00061E00E94DE3A0E94113AD6011C968D9178
:1029D0009C9121E029830E5F1F4F22E0A10161E05D
:1029E0000E94DE3A0E94113AF60183898C5F838B44
:1029F0008601045B1F4FD8017C9072FE35C0E80D44
:102A0000F91D848990E0A0E0B0E0B82FAA279927AB
:102A10008827F5012381822B2181A22B22814C0161
:102A20005D01922A81149104A104F0E1BF0608F02F
:102A300021C30E94974F462F572FBC0171FC5CC3E6
:102A4000F601E15BFF4F80819181A281B3818815FE
:102A50009905AA05BB0508F46CC3872D8D7FF80185
:102A60008083D60153968C91803308F038C16091F1
:102A7000C0012091BE013091BF01B2CA0280F38132
:102A8000E02D309709F446CA848D80FF2ACAF89455
:102A90009481258136814781548965897689A78902
:102AA000B08DE18CD28CC38C848D8E7F848F789492
:102AB000CF92DF92EF92BF93AF937F936F935F9329
:102AC0004F933F932F939F931F92FF921F930F93C8
:102AD0000E948E0C9091C0016091BE017091BF0167
:102AE0000FB6F894DEBF0FBECDBFFBC90280F381E5
:102AF000E02D309709F4BFC9808D8F3F09F0A2C93E
:102B0000F894868581117DC078949091C0014091A0
:102B1000BE015091BF0196C90280F381E02D30972C
:102B200009F4CFC9868583FFB3C9F8948685877F6A
:102B300086877894CF014A969F938F938089869554
:102B4000869586951F928F931F921F93EAEBFDE067
:102B5000FF93EF930E948E0C9091C0014091BE01B3
:102B60005091BF010FB6F894DEBF0FBECDBF90C924
:102B7000E280F380E114F10409F431C9D7015696DB
:102B80008C9182FF13C90E94974FF894F7013789FF
:102B90002689422F4B7F468B78949F938F937F9308
:102BA0006F931F923F9321701F922F931F921F9339
:102BB00028ED3DE03F932F930E948E0C9091C00131
:102BC0002091BE013091BF010FB6F894DEBF0FBE59
:102BD000CDBFECC80280F381E02D309709F425C900
:102BE000258D868D281308C9F894858D968D8917B3
:102BF00049F178949091C0014091BE015091BF017C
:102C0000FBC8918D908F78949F01215F3F4F3F9338
:102C10002F931F928F9387891F928F931F921F93D9
:102C2000E0ECFDE0FF93EF930E948E0C9091C001C9
:102C30004091BE015091BF010FB6F894DEBF0FBEA8
:102C4000CDBF00C95489658990892189328943891A
:102C50008F5F858F78946F935F934F933F932F93FC
:102C60009F931F921F93E2EDFDE0FF93EF930E946D
:102C70008E0C9091C0014091BE015091BF010FB6E2
:102C8000F894DEBF0FBECDBFB7C86115710510E166
:102C90008107910508F078CB00918D0210918E028A
:102CA00020918F02309190020BAB1CAB2DAB3EAB51
:102CB0009B01AC0121503F4F4F4F5F4F232F342FCB
:102CC000452F55270E943C560BA91CA92DA93EA9AA
:102CD000060F171F281F391FD901C8014CCB9601B9
:102CE0002C5E3F4F3F932F931F928F93F601808965
:102CF0008F9387858F931F92FF9286E99DE09F9324
:102D00008F930E948E0CD60153961C9253971F9658
:102D10008D919C915097019650969C938E931F97FE
:102D20006091C0012091BE013091BF010FB6F894AF
:102D3000DEBF0FBECDBF54C91C968D919C9122E77A
:102D40002AAB810122E0AE014E5C5F4F61E00E9440
:102D5000DE3A0E94113A898190E0982F88278827CF
:102D60009F712A81822BF60126853785281739071E
:102D700010F497878687D60151969C938E9350972F
:102D8000C0970CF0EECBF60182898E7F828BF8948F
:102D90000E94974FD60118960D911D912D913C914F
:102DA0001B97DC01CB01800F911FA21FB31FF601FF
:102DB00084839583A683B783C6010E94B60A78945C
:102DC00031C98FEA90E09A838983910142E061E002
:102DD000848595850E94452A8A8186FF0BC0D6018D
:102DE00054962D913C9155972F5F3F4F55963C93AC
:102DF0002E935497F6019089913009F4D7C1982FFA
:102E00009F73892F880F890F880FF601818B80337C
:102E100008F057CBD6011F968C911F978E7F1F9677
:102E20008C93F8940E94974FF601008511852285B6
:102E30003385DC01CB01800F911FA21FB31F848358
:102E40009583A683B783C6010E94B60A789498C872
:102E50001C968D919C9120E72AAB810122E0AE0166
:102E60004E5C5F4F61E00E94DE3A0E94113A898118
:102E700090E0982F882788279F712A81822BF6015E
:102E8000268537852817390710F497878687D60156
:102E900051969C938E935097C0970CF0BECBF60141
:102EA00082898E7F828BF8940E94974FD601189664
:102EB0000D911D912D913C911B97DC01CB01800F51
:102EC000911FA21FB31FF60184839583A683B78346
:102ED000C6010E94B60A7894CDC884859585A685DA
:102EE000B7859C01AD01892B8A2B8B2B09F02ECD48
:102EF000628DBDEFDB2ED60E6450D11409F453C1A0
:102F000070E06F5F7F4F620D731DA1018FEF9FEF28
:102F1000FA014F5F5F4F20812927322F32953F7092
:102F20002327E22FF0E0A22FB82FCD01FE2FEE27AE
:102F3000F295F07F8E279F27B0E22B9F90011124FE
:102F4000822793274617570719F7F101ED0DF11D59
:102F50003081FE013296ED0DF11D208128173907D1
:102F600009F096C0F701A689812C912C5401A11576
:102F700009F442C0C788D12CB0E023E080E090E0A3
:102F8000812C912C5401A601082E02C0559547951D
:102F90000A94E2F740FF2BC0F101E20FF11D4081DE
:102FA00050E060E070E0BA0155274427FE013396F7
:102FB000E20FF11D3081432BFE013296E20FF11D2D
:102FC00030812A013B01532A67FF02C077247A949B
:102FD000840C951CA61CB71CF701378DE30FF11D5F
:102FE00040A251A262A273A23C5FF701378F019603
:102FF0002D5FA817B90739F6F701ED5AFF4F808109
:103000009181009749F0DC019A962C9120FF04C031
:10301000B501A4010E94AA4FF701278D818D820F6F
:103020009927991FC4970CF498C8C70180969F935D
:103030008F931F922F93848D8F93838D8F931F92E5
:103040001F9386E99DE09F938F930E948E0CD7017A
:103050005F961C925F975B968D919C915C97019611
:103060005C969C938E935B970FB6F894DEBF0FBE71
:10307000CDBF73C8D8011C92F601E25BFF4F60819F
:103080003497808191810E945029F6018389ECCC8C
:1030900020E030E040E050E859CC21FF06C040E09D
:1030A00030E020E080E490E46ACBF70186859785E4
:1030B000A089B1890097A105B10509F0CBC0E05BFB
:1030C000FF4F80819181009749F0DC019A962C9105
:1030D00020FF04C0B501A4010E94AA4F94014A2D0B
:1030E0009B2D5CCB86851AAA811509F46ACE8130A6
:1030F00009F4A0C0118A8ECEF601ED5AFF4F8081EF
:103100009181A281B381272F481759076A072B0B9A
:1031100027FF96CCA6CC8FEF8093270180932601C2
:1031200078940000F894809126018111F9CF0C94D5
:10313000B90EF601ED5AFF4F4083518362837383CA
:10314000369760813397808191810E94502980E079
:1031500086CCBEE7CB1250C8CC24C3940FEF72C804
:1031600081E3D1011D928A95E9F788EA8983F60106
:103170008089813011F488EE8983910141E361E017
:10318000D6011C968D919C910E94452A4601B7E17B
:103190008B0E911C80E3FE013296D40101900D92BA
:1031A0008A95E1F79BC98FEF9FEFCFCE85FF56C081
:1031B000118A30CEFC01EF53FE4F20818E539E4F7B
:1031C000DC01EC90F22E6DEF6C0D84EC91E00E942E
:1031D0006B4FE816F90611F00C94FC101D7F10934C
:1031E000C30180910901D8120C94191181E08D0D51
:1031F0008F708061809309018C2D0E94F55401E04D
:103200000C94221188E2898350968C91813011F4BC
:1032100088EA89834601B7E18B0E911C840120E383
:10322000A10161E0F601848595850E94DE3A0E9445
:10323000113A54C98FE289838E010E5C1F4F21E041
:10324000A10161E0848595850E94DE3A0E94113AD1
:103250008AA9C3CD9C014A2F9B2FA0CA982F9F718A
:10326000892F880F890F880FD0CDCF93DF93CDB7EB
:10327000DEB78BE992E09093980180939701FFB6B7
:10328000F8941092800001E000938100E4E8F0E0FF
:103290001182108280819181C296909389008093DF
:1032A000880012E016BB80819181C29690938B00BA
:1032B00080938A0084E086BB81E091E00E94B60A98
:1032C00006BB10936F00FFBE88E19DE00FB6F89437
:1032D000A895809360000FBE9093600080E4809377
:1032E00060001093C00080E190E09093C50080934F
:1032F000C40086E08093C20088EB8093C10080E226
:103300009EE09F938F930E948E0C0F900F90F894E5
:103310008AE991E00E94F0568C01892B09F4B9C02A
:10332000F8940E94974FA62E972E882E792EE2E2CF
:10333000F1E08681811509F4AFC082E291E022E0DC
:10334000DC0116962C9316970AE011E00D931C935E
:10335000EAE1F1E04481558166817781D8011496D4
:103360004D935D936D937C931797DC011396FC93BB
:10337000EE931297D801ED93FC9382E191E0918353
:1033800080838091840090918500C29690938900FB
:103390008093880026BB109299010E94B1099FEF8B
:1033A00070E060E011E10091C001C090BE01D090DA
:1033B000BF01E1E0E90FF0E0EE0FFF1FEE0FFF1F8E
:1033C000EC0DFD1D892F0AC0AF014C5F5F4F2081BE
:1033D000318121543F4109F461C0FA018F5F8017A8
:1033E00098F3E72FF62F309709F45FC043A140719F
:1033F000A489B58986895FB7F894411509F47AC024
:1034000012964C911297842B12968C935FBF83A1D6
:10341000282F207184FD212F23A310A2178EC3CF44
:103420005FEF4091C00181E0850F90E0880F991F08
:10343000880F991FE091BE01F091BF01E80FF91FBD
:103440000AC09F012C5F3F4F808191818C5596432C
:1034500009F42EC2F9015F5F541798F381E091E0FF
:103460000E94B60AE2E2F1E081E0868378948781E7
:103470001F928F937F928F929F92AF9284E19EE0F2
:103480009F938F930E948E0C0FB6F894DEBF0FBEF1
:10349000CDBF78940E94960E07834FCF0280F381B0
:1034A000E02D982F309709F0A1CF1FEFE12CF12CE0
:1034B000E1E0E10FF0E0EE0FFF1FEE0FFF1FEC0D5C
:1034C000FD1D912F09C0AF014C5F5F4F20813181FD
:1034D000245D3E41A9F0FA019F5F9017A0F3F70128
:1034E0003097A1F015A214A260E0CF0188960E9447
:1034F0001D21DECF12964C9112978095842384CFA4
:103500000280F381E02D192F309761F71FEF612CB6
:10351000B12CE1E0E10FF0E0EE0FFF1FEE0FFF1F17
:10352000EC0DFD1D812F09C0AF014C5F5F4F208165
:1035300031812F52364249F1FA018F5F8017A0F393
:10354000E62CFB2CE114F10431F1C7010E94590A69
:10355000C70108960E94590AD7015496ED91FC9133
:10356000309761F0DF010190F081E02D13961C92FD
:103570001E9212971D921C923097A1F7F701158A9F
:10358000148A108E178A168AC4CFE280F380182F0F
:10359000E114F104D1F61FEFBB24BA94409100016D
:1035A000E1E0E10FF0E0EE0FFF1FEE0FFF1FEC0D6B
:1035B000FD1D0AC09F012C5F3F4F808191818B5977
:1035C0009F4109F43EC0F9011F5F101798F3409323
:1035D00000019FEF7E2D6F2DF090C0010091BE0184
:1035E0001091BF01E1E0E90FF0E0EE0FFF1FEE0FD9
:1035F000FF1FE00FF11F892F0AC0AF014C5F5F4F23
:10360000208131812C5A3E4109F445C0FA018F5F77
:103610008F1598F3E72FF62F309709F443C0858173
:1036200080FFE0CFA281B38124813FB7F89483FD6E
:1036300095C112968C911297822B12968C933FBF54
:10364000CBCF0280F381E02D309709F4C0CF828D7B
:10365000841301C04B2D868D811509F4A1CF4093B1
:1036600000018F5F858F80899189A289B389408508
:10367000518562857385840F951FA61FB71F808BA8
:10368000918BA28BB38B84839583A683B783CF0161
:103690000E94B60A83CF0280F381E02D982F3097E5
:1036A00009F0BDCFEE24EA94C12CD12CE1E0EE0D5F
:1036B000F0E0EE0FFF1FEE0FFF1FE00FF11F8E2D4A
:1036C00009C0AF014C5F5F4F20813181235D3642DD
:1036D00089F0FA018F5F8F15A0F3F601309781F022
:1036E0009F012D5F3F4F428160E0808191810E9468
:1036F000452ADCCF0280F381E02DE82E309781F758
:103700000FEF10E0F12C66ED71E39091C00121E024
:10371000200F30E0220F331F220F331FE091BE0134
:10372000F091BF01E20FF31F802F09C0AF014C5F82
:103730005F4F208131812D573343B9F0FA018F5FFC
:103740008917A0F3E12FFF2D3097A9F08785908985
:10375000208531854285411509F44CC0D9018C93EF
:1037600073836283128A118AD0CF0280F381E02DA5
:10377000082F309759F76FEF10E070E09091C0017B
:1037800021E0260F30E0220F331F220F331FE0917C
:10379000BE01F091BF01E20FF31F862F09C0AF01F8
:1037A0004C5F5F4F208131812E53354361F1FA0127
:1037B0008F5F8917A0F3E12FF72F309751F1228502
:1037C000A085B185368535FF64C05FB7F894119642
:1037D0003C911197322B12964C911297242B1296F2
:1037E0002C93129711963C935FBF868580738160FE
:1037F0008687C4CF4FB7F8949927D90111969C9327
:103800008E934FBFADCF0280F381E02D682F3097AC
:10381000B1F66FEF10E070E09091C00121E0260F4B
:1038200030E0220F331F220F331FE091BE01F091D1
:10383000BF01E20FF31F862F09C0AF014C5F5F4F3E
:1038400020813181255D354371F1FA018F5F891740
:10385000A0F3E12FF72F309709F4E2CDA485B585C9
:1038600086859FB7F89412964C9112978095842381
:1038700012968C939FBFA785B08981899FB7F894D2
:1038800012964C9112978095842312968C939FBF29
:10389000C3CF4FB7F89412963C911297232B1296F0
:1038A0002C934FBFA2CF0280F381E02D682FD3CF9E
:1038B0000280F381E02D309709F4D0CDA185B28547
:1038C00083859FB7F89412962C9112978095822346
:1038D00012968C939FBFA485B58586859FB7F89473
:1038E00012962C9112978095822312968C939FBFEB
:1038F000A785B08981899FB7F89412962C91129769
:103900008095822312968C939FBFA289B389848964
:103910009FB7F89412962C91129780958223129655
:103920008C939FBFA589B68987899FB7F894129613
:103930002C9112978095822312968C939FBFA08D15
:10394000B18D828D9FB7F89412962C911297809525
:10395000822312968C939FBF108663CD12964C9152
:103960001297822F8095842368CE809133019091A5
:1039700034019F938F9321E030912801311101C0D0
:1039800020E01F922F9320912D012F9320912C0145
:103990002F9320912B012F9320912A012F9321E027
:1039A000892B09F420E01F922F9386EF9DE09F93CF
:1039B0008F930E948E0C8DB79EB70C960FB6F8941D
:1039C0009EBF0FBE8DBF08950E94974F9F938F9308
:1039D0007F936F938CEF9DE09F938F930E948E0C4B
:1039E0000F900F900F900F900F900F9008950F93DE
:1039F0001F930E94974F362F272F462F572FBC011A
:103A00007F938F932F933F9381E090E0A0E0B0E00D
:103A10000091890210918A0220918B0230918C02D0
:103A2000401751076207730718F080E090E0DC014F
:103A300040918502509186026091870270918802C0
:103A4000840F951FA61FB71FBF93AF939F938F93AC
:103A500082E09EE09F938F930E948E0C8DB79EB75D
:103A60000A960FB6F8949EBF0FBE8DBF1F910F919F
:103A70000895CF92DF92EF92FF92CF93DF93EC0104
:103A800088819981AA81BB81E6E8FDE04591559145
:103A90006591759184179507A607B70778F42C816F
:103AA0006C017D01C20ED11CE11CF11C4C155D05A1
:103AB0006E057F0528F5481B50E002C040E050E04D
:103AC0009C012C533F4F3F932F935F934F93BF9392
:103AD000AF939F938F938EE09EE09F938F930E946E
:103AE0008E0C8DB79EB70A960FB6F8949EBF0FBE88
:103AF0008DBFDF91CF91FF90EF90DF90CF90089531
:103B0000422F50E0DDCFFC0180810480F581E02D63
:103B10002FB7F8948130E9F08230B1F4808191813F
:103B2000A281B3812FBFBF93AF939F938F938AEEF0
:103B30009DE09F938F930E948E0C0F900F900F909B
:103B40000F900F900F900895808190E0A0E0B0E07A
:103B5000E9CF80819181A0E0B0E0E4CFFC018581D4
:103B60008F9384818F9380811F928F9380EF9DE04C
:103B70009F938F930E948E0C0F900F900F900F9039
:103B80000F900F900895CF93DF93AC01C0919701F0
:103B9000D09198019E01280F391F8DB79EB7815093
:103BA0009F4F88279A958217930768F03093980162
:103BB0002093970160E070E0CE010E946257CE0131
:103BC000DF91CF91089581E10E94AC0ACF93FC016F
:103BD0008091BE019091BF01892B89F4C0818C2F07
:103BE00090E0880F991F880F991F0E94C31D909322
:103BF000BF018093BE01C093C001CF9108958AE0B8
:103C00000E94AC0ACF93DF93282FCA013091C001E4
:103C10002317F0F430E0220F331F220F331FC0911F
:103C2000BE01D091BF01C20FD31F28813981232B40
:103C300079F42091330130913401232B49F46883C6
:103C400079830E94C31D8A839B83DF91CF9108955E
:103C50008BE00E94AC0A8FE00E94AC0A8EE00E94CA
:103C6000AC0A0F931F93CF93DF938C01C091330164
:103C7000D0913401209709F049C04091300150E0C3
:103C80004230B8F1E0919701F09198012DB73EB71D
:103C900021503F4F22273A95CF01782F692F840F6B
:103CA000951F2817390758F12196C11564E0D607EA
:103CB000A1F78E1B9F0B0E94C31DD0933401C093AC
:103CC000330190933201809331010E94B109F801D0
:103CD00080819181A281B38180932A0190932B01ED
:103CE000A0932C01B0932D01DF91CF911F910F91E3
:103CF000089582E08093300142E050E0C3CF872FE7
:103D0000962F2097B1F680E10E94AC0A8DE00E94C8
:103D1000AC0A8CE00E94AC0AFC0186898460868B28
:103D20001092260181E08093B10184819581A68162
:103D3000B7814089518962897389840F951FA61FB5
:103D4000B71F84839583A683B78381E00895FC0120
:103D5000648180810C943453FF920F931F93CF930F
:103D6000DF938C0146E050E06CEA7EE1FC0180814B
:103D70000E94021EEC01F801F08461E0F11060E0A5
:103D8000F80184810E9434536A837B838C838D8104
:103D900099E0F11001C091E0892B8D83DF91CF91E3
:103DA0001F910F91FF900895FF920F931F93CF9350
:103DB000DF938C014DE250E064ED7EE1FC018081F7
:103DC0000E94021EEC01F801F4841F140CF04EC096
:103DD00084E08CA764E0F80184810E9434536A8FE8
:103DE0007B8F8C8F60E0F80180850E9434536D8F4B
:103DF0007E8F8F8F80E090E0A0E0B0EC88A399A345
:103E0000AAA3BBA3F80180899189A289B3898E8B6B
:103E10009F8BA88FB98F1FA21EA21DA21CA220914A
:103E2000330130913401232B51F5209130012B3097
:103E300080F0F7FC04C08997A105B10570F084E11A
:103E400098E29B838A83DF91CF911F910F91FF901E
:103E500008952BE020933001ECCF8CA580638CA7D4
:103E6000DF91CF911F910F91FF900895F11003C042
:103E70006CA56470B0CF80E18CA760E0ACCF0E94ED
:103E80002E1EFF920F931F93CF93DF93EC0161E0FF
:103E900088859985AA85BB85892B8A2B8B2B09F46C
:103EA00060E08C810E943453F62E072F182F44E2D5
:103EB00050E061E47FE188810E94021EFC01F48AE7
:103EC000058B168B81E04C855D856E857F85452B46
:103ED000462B472B09F480E08295807F91E048854E
:103EE00059856A857B85452B462B472B09F490E045
:103EF000892B83A388899989AA89BB89878B908F0D
:103F0000A18FB28F12A211A210A2178E809133013D
:103F100090913401892B69F4809130018A3018F432
:103F20008AE080933001DF91CF911F910F91FF9034
:103F300008950E942E1ECF93DF93DC0114968C917E
:103F40001497C0E0D0E0FE01E25DF14FE4918E17DE
:103F500039F02196C830D105B1F78AE30E94AC0A46
:103F600087E980937A0080917E0021E030E00C2E7A
:103F700001C0220F0A94EAF7822B80937E004FE162
:103F800050E06BE97FE18C910E94021EFC018AE403
:103F900094E293838283C28F81E0858FDF91CF91FA
:103FA0000895FC0180819091C001891740F590E04F
:103FB000880F991F880F991FA091BE01B091BF0172
:103FC000A80FB91F8D919C91119781549F41B9F40D
:103FD00012960D90BC91A02DF8945F968D919C91B6
:103FE0009097892B71F444815581668177815B9626
:103FF0004D935D936D937C935E97789408950E94A2
:10400000891E84E10E94AC0AFC0180819091C0016C
:10401000891750F590E0880F991F880F991FA0917C
:10402000BE01B091BF01A80FB91F8D919C9111974E
:10403000845D9E41C9F412960D90BC91A02D81E043
:104040004481558166817781452B462B472B09F4A6
:1040500080E0880FF8949C969C919C979D7F892B7B
:104060009C968C93789408950E94891EDC018C9113
:104070009091C001891778F590E0880F991F880FFB
:10408000991FE091BE01F091BF01E80FF91F8081F7
:104090009181845D9E41F9F40280F381E02D1496B4
:1040A0008D919D910D90BC91A02DF89446855785DA
:1040B00060897189452B462B472B79F4848395833E
:1040C000A683B783828B938BA48BB58B84A5877FC4
:1040D00084A7789408950E94891E86E10E94AC0A04
:1040E000CF93DF93DC01EC919091C001E91708F0C8
:1040F0003DC02091BE013091BF01F0E0EE0FFF1FE7
:10410000EE0FFF1FE20FF31F40815181445D5E41BE
:1041100069F5C281D38114968C91891738F590E0A6
:10412000880F991F880F991FF901E80FF91F8081E7
:1041300091818F529642D1F40280F381E02D9E014D
:10414000285D3F4F8FB7F8944AA55BA5452B81F4B6
:104150004DE151E25BA74AA74489558959A748A771
:10416000358B248B8FBFDF91CF9108950E94891EDC
:1041700089E10E94AC0ACF92DF92EF92FF921F93E7
:10418000CF93DF93FC01148580819091C001891742
:1041900008F04EC090E0880F991F880F991FA091DA
:1041A000BE01B091BF01A80FB91F8D919C911197CD
:1041B000805A9642E9F51296CD91DC9184819581E1
:1041C000A681B781892B8A2B8B2BA1F58091BC000E
:1041D00082FF0DC0110F18838A8182608A83DF916C
:1041E000CF911F91FF90EF90DF90CF900895C08402
:1041F000D184E284F38461E081E10E94345361E080
:1042000080E10E9434531092B90080E8C8168AE118
:10421000D80686E0E806F10438F488E48093B80014
:1042200084E08093BC00D6CF8CE08093B800F8CFB8
:104230000E94891E8EE30E94AC0A0F931F93CF93B6
:10424000DF938C01EC01A897CE010E94590A1C82D1
:104250001D821E821F821A8A1B8A1C8A1D8A88A1BF
:1042600099A1AAA1BBA12CA54E855F8568897989F2
:1042700024FD04C07695679557954795841B950B4B
:10428000A60BB70BB7FF07C0B095A0959095819589
:104290009F4FAF4FBF4FB095A095909581959F4F81
:1042A000AF4FBF4F88A399A3AAA3BBA31E861F86A7
:1042B000188A198A247328602CA7ED8DFE8D8F8DA6
:1042C0009FB7F89422818095822382839FBF8CA51B
:1042D00084FF23C085FD21C0E8012497E881F9818E
:1042E0003097B1F030912E0120912F0101C0FC01D7
:1042F000808191819983888330832183F0932F017A
:10430000E0932E01888199813E2F2F2F009779F716
:10431000DF91CF911F910F910895EA8DFB8D9C8DB8
:104320002FB7F89482FD07C03281892F80958323AF
:1043300082832FBFD1CF8281892BFACF0F931F9316
:10434000CF93DF938C01FC0180819091C00189178C
:1043500008F070C090E0880F991F880F991FE091B6
:10436000BE01F091BF01E80FF91F8081918189564C
:10437000954209F05FC0C281D381CE010E94590AE3
:10438000F80184819581A681B7818C839D83AE835A
:10439000BF8380859185A285B3858F87988BA98BF4
:1043A000BA8B84858A8F8115E9F1408951896289A8
:1043B00073894B875C876D877E8722EC39E23B836C
:1043C0002A838B8F84899589A689B789892B8A2B23
:1043D0008B2B31F582E0898FF801808D9091C0019F
:1043E000891740F590E0880F991F880F991FE09179
:1043F000BE01F091BF01E80FF91F808191818F52BA
:104400009642C1F482819381988F8F8BF801848DBD
:104410008C8FCE01DF91CF911F910F910C94B60A32
:1044200083E0D9CF188E1F8A198EDF91CF911F910B
:104430000F9108950E94891E0F931F93CF93DF93CE
:104440008C01FC0180819091C001891708F053C054
:1044500090E0880F991F880F991FE091BE01F0919D
:10446000BF01E80FF91F808191818F52964209F0B8
:1044700042C0C281D381F894CE010E94590ACE0174
:1044800008960E94590AEC89FD89309761F0DF0196
:104490000190F081E02D13961C921E9212971D92AE
:1044A0001C923097A1F71D8A1C8A188E1F8A81E002
:1044B0008E8BF80184819581A681B7818C839D8341
:1044C000AE83BF8380859185A285B385888B998BC8
:1044D000AA8BBB8B892B8A2B8B2B49F4F801848503
:1044E000888F7894DF91CF911F910F910895CE011D
:1044F0000E94B60AF3CF0E94891EEF92FF920F939B
:104500001F93CF93DF93EC0188819091C0018917AD
:1045100098F590E0880F991F880F991FE091BE01D0
:10452000F091BF01E80FF91F808191818F5296426F
:1045300019F502811381F894F801868980FD08C07D
:104540007894DF91CF911F910F91FF90EF90089594
:104550007801F8E0EF0EF11CC7010E94590A8C8126
:104560009D81AE81BF81F80184879587A687B78733
:10457000C7010E94B60AE4CF0E94891E0F931F93C1
:10458000CF93DF938C01FC0180819091C00189174A
:1045900008F058C090E0880F991F880F991FE0918C
:1045A000BE01F091BF01E80FF91F808191818B5905
:1045B0009F4109F047C0C281D381CE010E94590AB0
:1045C000909100018A8D981303C08FEF80930001B2
:1045D000F80184819581A681B781888B998BAA8BFC
:1045E000BB8B8C839D83AE83BF8380859185A285A1
:1045F000B3858C879D87AE87BF8784858E8F91E03A
:10460000980F9D8F4089518962897389488759879E
:104610006A877B87248935893F8B2E8B208D318D4E
:10462000398F288F948D9C8F811105C0DF91CF9198
:104630001F910F910895CE01DF91CF911F910F919E
:104640000C94B60A0E94891ECF92DF92EF92FF92DD
:10465000CF93DF93DC018C919091C001891708F012
:104660008CC090E0880F991F880F991FE091BE01C0
:10467000F091BF01E80FF91F8081918181549F4122
:1046800009F07BC0C281D3818FB7F894E0912E01ED
:10469000F0912F01309709F472C02081318130935D
:1046A0002F0120932E018FBF1496CD90DD90ED90B9
:1046B000FC901797C282D382E482F58218968D917E
:1046C0009D910D90BC91A02D86839783A087B18783
:1046D000F894118210828F8D98A1892B71F0A9A175
:1046E000BAA1ED93FC93FAA3E9A37894DF91CF915B
:1046F000FF90EF90DF90CF900895FAA3E9A3F8A37D
:10470000EF8F8BA182FD2BC0C88AD98AEA8AFB8AE7
:10471000982F94609BA381FD16C0CE010E94590A78
:10472000CC82DD82EE82FF8280E49BE09B838A83E1
:10473000CE010E94B60A7894DF91CF91FF90EF905E
:10474000DF90CF9008954C815D816E817F81872FAE
:104750004C155D056E058F0987FDEDCFDECF4889CD
:1047600059896A897B89972F4C155D056E059F09CC
:1047700097FFCACF83E10E94AC0A0E94891E0E9463
:104780002B1ECF92DF92EF92FF920F931F93CF9346
:10479000DF938C01FC0180819091C001891708F0A2
:1047A00074C090E0880F991F880F991FE091BE0197
:1047B000F091BF01E80FF91F8081918181549F41E1
:1047C00009F063C0C281D381CE010E94590A8F8D46
:1047D00098A1892B09F05BC0F80194811BA101E02D
:1047E000911569F1EC89FD898E892FB7F894328192
:1047F000911123C08095832382832FBF107121E004
:10480000911120E014FB882780F991E0892728176F
:1048100041F08F89988DA98DBA8D892B8A2B8B2B8E
:1048200081F4802F812B8BA3DF91CF911F910F916A
:10483000FF90EF90DF90CF900895832BDDCF00E0C5
:10484000D1CF0E94974FCF88D88CE98CFA8CC60EB6
:10485000D71EE81EF91EC88AD98AEA8AFB8ACC824A
:10486000DD82EE82FF8280E49BE09B838A83102BB3
:1048700014601BA3CE01DF91CF911F910F91FF9088
:10488000EF90DF90CF900C94B60A0E94891E82E1CF
:104890000E94AC0AFC0180917A0086FD07C0828DDF
:1048A000909100019817D1F09F3F71F0848195811C
:1048B000A681B7818853984FAF4FBF4F84839583AC
:1048C000A683B78381E00895809300018770806498
:1048D00080937C0087ED80937A00E8CF8FEF809300
:1048E00000012091780030917900858D968D89178F
:1048F00078F181E0358B248B858F891798F1848D31
:10490000811559F04689578924173507E8F1408DFC
:10491000518D42175307C0F1138E1092260181E08A
:104920008093B20180899189A289B389408551859C
:1049300062857385840F951FA61FB71F808B918B8F
:10494000A28BB38B84839583A683B78381E008957C
:1049500044895589240F351F8F5F358B248B858FB4
:10496000891768F684819581A681B781448555852C
:1049700066857785840F951FA61FB71F848395834F
:10498000A683B78381E00895938D9F5F938F9817D7
:1049900020F2809128018111BFCF8AE10E94AC0AE8
:1049A000FC0120818091C001281708F048C0822FA7
:1049B00090E0880F991F880F991FE091BE01F09138
:1049C000BF01E80FF91F80819181845D9E41B9F597
:1049D0000280F381E02DF89480A191A1A2A1B3A15E
:1049E000468557856089718934A534FD04C0769564
:1049F000679557954795841B950BA60BB70B789435
:104A0000B7FF07C0B095A095909581959F4FAF4F88
:104A1000BF4FB054BF93AF939F938F931F922F9329
:104A200084EE9DE09F938F930E948E0C8DB79EB76E
:104A300008960FB6F8949EBF0FBE8DBF08950E94D2
:104A4000891EFC0120818091C001281708F03FC019
:104A5000822F90E0880F991F880F991FE091BE0167
:104A6000F091BF01E80FF91F80819181895695422D
:104A700071F50280F381E02DF894818D438954898A
:104A8000658976897894A085B1859C913285932338
:104A900031E0911101C030E01F923F937F936F93FB
:104AA0005F934F93869581701F928F931F922F93E0
:104AB0008EED9DE09F938F930E948E0C8DB79EB7D5
:104AC0000C960FB6F8949EBF0FBE8DBF08950E943E
:104AD000891E0F931F93CF93DF93EC014DE150E0BC
:104AE00069E675E288810E94021E8C0168858C81CE
:104AF0000E946C53F801608771878287DF91CF91A4
:104B00001F910F910895CF92DF92EF92FF920F9332
:104B10001F93CF93DF93FC0180819091C00189178F
:104B200008F098C090E0880F991F880F991FA091F6
:104B3000BE01B091BF01A80FB91F8D919C91119733
:104B40008C5A9E4109F086C012960D911C91C08529
:104B5000C43008F07CC0D8011596DC91D670D11114
:104B600076C0C484D584E684F78484819581A68147
:104B7000B781892B8A2B8B2B09F06EC0E8E2FEE00F
:104B8000A591B59111968C9184FF50C060E08FE0A3
:104B90000E94345360E08DE00E94345360E08EE068
:104BA0000E946C5380E58CBD1DBC81E0C114B2E154
:104BB000DB06BAE7EB06F10430F580E0C114E9E06A
:104BC000DE06EDE3EE06F104F0F481E0D1E0F0E87A
:104BD000CF16F4E8DF06FEE1EF06F104A0F480E072
:104BE000D1E020E4C21622E4D2062FE0E206F1046E
:104BF00050F480E2C81681EAD80687E0E806F1049E
:104C0000D0F081E0D2E0CC0FCC0FCD2BC065F80105
:104C1000C0838183858184608583DF91CF911F91DB
:104C20000F91FF90EF90DF90CF90089560E08CE0BF
:104C30000E943453ABCF80E0D3E0A0E9CA16A0EDC8
:104C4000DA06A3E0EA06F104F0F2D2E0DCCF8BE171
:104C50000E94AC0A0E94891E8BE30E94AC0ACF938B
:104C6000DF93FC01C0818091C001C81798F5D0E0A6
:104C7000CC0FDD1FCC0FDD1FE091BE01F091BF0115
:104C8000EC0FFD1F80819181892B21F580913301EB
:104C900090913401892BF1F48FE296E29183808325
:104CA00089E190E00E94C31DFC01A091BE01B0917A
:104CB000BF01AC0FBD1F13969C938E9312978CE887
:104CC0009EE19383828382EF99E293878287DF91CB
:104CD000CF9108958BE00E94AC0ACF93DF93FC0143
:104CE000C0818091C001C81740F5D0E0CC0FDD1F16
:104CF000CC0FDD1FE091BE01F091BF01EC0FFD1F55
:104D000080819181892BC9F4809133019091340184
:104D1000892B99F48CEA9EE19183808386E090E070
:104D20000E94C31DE091BE01F091BF01EC0FFD1F79
:104D300093838283DF91CF9108958BE00E94AC0A28
:104D4000CF93DF93FC01C0818091C001C81740F56B
:104D5000D0E0CC0FDD1FCC0FDD1FE091BE01F09144
:104D6000BF01EC0FFD1F80819181892BC9F48091D7
:104D7000330190913401892B99F480EA96E2918372
:104D8000808383E090E00E94C31DE091BE01F0911A
:104D9000BF01EC0FFD1F93838283DF91CF910895B4
:104DA0008BE00E94AC0ACF92DF92FF920F931F9389
:104DB000CF93DF93EC018C819091C001891770F53E
:104DC00090E0880F991F880F991FE091BE01F09124
:104DD000BF01E80FF91F808191818C5A9E41F1F447
:104DE000C280D380F8840F2D10E0A8014D5F5F4F83
:104DF00063ED76E288810E94021EFC01D182C082AE
:104E0000F2826C857D85A8010396DF91CF911F9179
:104E10000F91FF90DF90CF900C9447570E94891E0E
:104E20004F925F926F927F928F929F92AF92BF92BA
:104E3000CF92DF92EF92FF921F93CF93DF93EC011B
:104E4000ECA1FDA13097A9F41E861F86188A198A45
:104E500080E0DF91CF911F91FF90EF90DF90CF9096
:104E6000BF90AF909F908F907F906F905F904F908A
:104E70000895808191819DA38CA382819381A481D7
:104E8000B58140855185268137816285162F117045
:104E9000E0902E01F0902F01F182E082F0932F013B
:104EA000E0932E01C8A0D9A0EAA0FBA060FF08C033
:104EB000F094E094D094C094C11CD11CE11CF11C6E
:104EC00060E070E04A015B01C40ED51EE61EF71ECD
:104ED000C8A2D9A2EAA2FBA23D872C876901032EB2
:104EE000000CEE08FF08C80ED91EEA1EFB1EC8867D
:104EF000D986EA86FB86ECA5CC80DD80EE80FF803B
:104F0000E5FF15C08C0D9D1DAE1DBF1D8C839D83BF
:104F1000AE83BF83232B09F06AC0EF7BECA74E87DB
:104F20005F87688B798B11114EC081E092CF4E85DF
:104F30005F85688979894A885B886C887D88840D5B
:104F4000951DA61DB71D8A8B9B8BAC8BBD8B8C834F
:104F50009D83AE83BF833E2F3071E4FF3AC08E86BF
:104F60009F86A88AB98A452B462B472BE1F22B2F27
:104F70008C159D05AE052F0927FD45C01115A9F219
:104F8000311137C0ED8DFE8D8F8D80830E94974F3C
:104F9000CE88DF88E88CF98CDC01CB018C0D9D1D5F
:104FA000AE1DBF1DCC80DD80EE80FF802F2DC8168A
:104FB000D906EA062B0B27FFB8CF8C839D83AE83DF
:104FC000BF8381E046CFED8DFE8D8F8D808381E0A4
:104FD00040CF880C991CAA1CBB1C8E869F86A88A71
:104FE000B98A452B462B472B09F49DCFC0CFE064EF
:104FF00095CF0E94974F292F6C157D058E052F099F
:1050000027FDF7CFBFCF8C199D09AE09BF098038A6
:10501000914CAF4FBF4F2CF0CC82DD82EE82FF82ED
:10502000ADCF88E10E94AC0A4F925F926F927F925F
:105030008F929F92AF92BF92CF92DF92EF92FF92A8
:105040000F931F93CF93DF93EC01EA8DFB8D8C8D33
:1050500080830E94974F0E891F89288D398DDC012E
:10506000CB01800F911FA21FB31F0E851F852889BA
:1050700039896801790141E0C41AD108E108F108D1
:1050800000FD1DC02CA524FD1FC0CE86DF86E88A4A
:10509000F98A8C839D83AE83BF8381E0DF91CF91BA
:1050A0001F910F91FF90EF90DF90CF90BF90AF9046
:1050B0009F908F907F906F905F904F900895C11454
:1050C000D104E104F10471F1488459846A847B8439
:1050D0000A891B892C893D89040D151D261D371D44
:1050E0000A8B1B8B2C8B3D8B8C849D84092C000C94
:1050F000AA08BB08840C951CA61CB71C8886998638
:10510000AA86BB86432F081719072A074B0B47FDB2
:10511000BCCFCE86DF86E88AF98A0C831D832E8376
:105120003F83BBCF8C839D83AE83BF83CE01DF9152
:10513000CF911F910F91FF90EF90DF90CF90BF9094
:10514000AF909F908F907F906F905F904F900C9456
:105150001027CF93DF93DC018C919091C0018917C8
:1051600008F097C090E0880F991F880F991FE09171
:10517000BE01F091BF01E80FF91F80819181845D2C
:105180009E4109F086C0C281D3818FB7F894E09127
:105190002E01F0912F01309709F480C020813181D8
:1051A00030932F0120932E018FBF14964D915D9166
:1051B0006D917C911797428353836483758318960E
:1051C0008D919C91199791878087892B09F463C0F1
:1051D0001C968D919C91978386831286F8948CA55A
:1051E000282F217081FB992790F9291729F091E048
:1051F00089279285916092874E855F856889798934
:10520000452B462B472B39F583FF0EC080912E018D
:1052100090912F0191838083F0932F01E0932E01D1
:105220007894DF91CF9108958CA7118210828CA180
:105230009DA1892B09F1AEA1BFA1ED93FC93FFA322
:10524000EEA3CE010E941027CE010E94B60A7894E8
:10525000DF91CF9108958CA7118210828CA19DA11E
:10526000892B79F0AEA1BFA1ED93FC93FFA3EEA330
:105270007894DF91CF910895FFA3EEA3FDA3ECA353
:10528000E0CFFFA3EEA3FDA3ECA37894DF91CF9131
:1052900008950E94891E87E10E94AC0A0E942B1E7D
:1052A0000F931F93CF93DF93EC01162F0FB7F89452
:1052B0008E8980FF24C06F8B8A7F84608E8BAC893F
:1052C000BD891097B9F01296ED91FC9113978D91CD
:1052D0009C9111979D8B8C8B11961C921E9213960C
:1052E0001C921E921297612FCD010995AC89BD8940
:1052F000109749F71092260181E08093B1010FBF0A
:10530000DF91CF911F910F910895CF93FC01A0855C
:10531000B1859C91818D22859223911511F0809504
:10532000817080FD18C0C38DCA9521F1C38F84811F
:105330009581A681B7814785508961897289840FDB
:10534000951FA61FB71F84839583A683B783C1E0EB
:105350008C2FCF91089582EC99E293838283838985
:105360009489A589B68984839583A683B783828D22
:10537000838FEDCF648D8789908D0E9450298C2F6B
:10538000CF9108950F931F93FC01A085B1859C9147
:10539000448155816681778103851485258536850D
:1053A000400F511F621F731F818D2285922391151B
:1053B00011F08095817080FF08C044835583668317
:1053C000778381E01F910F910895438B548B658BF8
:1053D000768B85E899E293838283CF011F910F91A9
:1053E0000C9485290897FC01608D0E94502980E06B
:1053F00008951F93CF93DF93FC0110818091C0012A
:10540000181708F040C0812F90E0880F991F880F6F
:10541000991FA091BE01B091BF01A80FB91F8D9136
:105420009C9111978F52964271F51296CD91DC9115
:10543000F8946481CE010E945029CE010E94590A3D
:10544000CE0108960E94590A1E8A8F8978941F926D
:105450001F921F921F921F928F931F921F921F9253
:105460001F9388ED9DE09F938F930E948E0C8DB7C4
:105470009EB70C960FB6F8949EBF0FBE8DBFDF91FE
:10548000CF911F9108950E94891E2F923F924F92B3
:105490005F926F927F928F929F92AF92BF92CF92C4
:1054A000DF92EF92FF920F931F93CF93DF93CDB7CD
:1054B000DEB72A970FB6F894DEBF0FBECDBF8B8341
:1054C0009C83262E342E8901AB81BC811596BC911C
:1054D000BD838B2F8670811579F1B270BB2EED8163
:1054E000E170E887FFEFF40FFE832D81AB81BC8173
:1054F00021FD3BC09C9111968C919CBD8DBDB885C2
:10550000B111F4C0611509F488C14115A9F0F80181
:1055100098012F5F3F4F8E81280F311D81918EBDE5
:105520000DB407FEFDCF8EB5DF018E932E173F071A
:10553000A9F7B885B1115BC12A960FB6F894DEBF02
:105540000FBECDBFDF91CF911F910F91FF90EF90D4
:10555000DF90CF90BF90AF909F908F907F906F9093
:105560005F904F903F902F9008950D90BC91A02D8B
:10557000BA83A9831D969C911D9792701696ED9102
:10558000FC91179718968C912FB7F894911142C1FE
:1055900092818095892382832FBF0E94974FE98152
:1055A000FA81C184D284E384F484C60ED71EE81E37
:1055B000F91E0E94974F292F6C157D058E052F0926
:1055C00027FDF7CFB885B11191C0AB81BC810D909B
:1055D000BC91A02DBA87A98719964D905D906D90CA
:1055E0007C901C9753014201B694A794979487949A
:1055F000481859086A087B080E94974F7501640192
:10560000C60ED71EE81EF91E311409F4ECC01A8329
:105610000983C8010196EE81E80FF92FF11DFF8380
:10562000EE83A981BA810D91BA83A983E985FA85B0
:105630008585182F117098E0392E80FF70C010E01A
:105640000E94974F292F6C157D058E052F0927FD88
:10565000F7CFA985BA851696ED91FC911797189604
:105660008C91189780831396ED91FC911497159661
:105670008C919FB7F894228107FFE7C0822B828329
:105680009FBF0E94974F73016201C60ED71EE81E8E
:10569000F91E000F110F0E94974F292F6C157D05E1
:1056A0008E052F0927FDF7CFA985BA851696ED91AE
:1056B000FC91179718968C9118978083ED91FC9127
:1056C0001197808112969C91892391E0811101C0EC
:1056D00090E0192B0E94974F75016401C60ED71EEA
:1056E000E81EF91E3A9409F0ABCF70C09D81987006
:1056F000AB81BC811296ED91FC91139714968C911D
:105700002FB7F89491119EC03281809583238283B4
:105710002FBFB11409F4A3C0E1E0E88756CF0E947F
:10572000974F292F6C157D058E052F0927FDF7CF83
:10573000A985BA851396ED91FC91149715968C91D5
:105740009FB7F894228107FF83C0822B82839FBF7B
:10575000A985BA851696ED91FC91179718968C91AC
:1057600080830E94974F73016201C60ED71EE81E08
:10577000F91E000F110F0E94974F292F6C157D0500
:105780008E052F0927FDF7CFA985BA85ED91FC91EC
:105790001197808112969C91892391E0811101C01B
:1057A00090E0192BA985BA851696ED91FC91179773
:1057B00018968C9180830E94974F75016401C60EE4
:1057C000D71EE81EF91E3A9409F0A9CF211419F04A
:1057D000E981FA811293E981FA812E813F81E217F2
:1057E000F30709F01ECFB885B11509F4A5CE9D8148
:1057F0009870AB81BC811296ED91FC911397149631
:105800008C912FB7F894911126C09281892B8283B5
:105810002FBF92CE9281892BBECE411509F48CCE3A
:10582000AE818A2F90E00196800F911FF8012081B0
:105830000F5F1F4F2EBD0DB407FEFDCF08171907D0
:10584000A9F7D1CF3281832B62CF8095822317CFE6
:10585000809582237BCF928180958923D8CF211494
:1058600021F0311431F2288652CE311411F291E038
:105870009887D6CF0F931F93CF93DF93FC01C081FE
:105880008091C001C817B8F58C2F90E0880F991F40
:10589000880F991FA091BE01B091BF01A80FB91F39
:1058A0008D919C9111978C5A9E4129F5D481108538
:1058B0000185212F302F4D2F61E012968D919C9103
:1058C0000E94452A0F931F931F92DF931F92CF933D
:1058D0008CEC9DE09F938F930E948E0C8DB79EB7AA
:1058E00008960FB6F8949EBF0FBE8DBFDF91CF9183
:1058F0001F910F9108950E94891EFC018081909153
:10590000C0018917D0F490E0880F991F880F991F64
:10591000A091BE01B091BF01A80FB91F8D919C91BC
:1059200011978C5A9E4149F420853185448160E06D
:1059300012968D919C910C94452A0E94891ECF93BA
:10594000DF93EC012A8D2115B9F0FC0130E0A901AB
:10595000440F551F420F531F4C0F5D1F20E091E075
:10596000A38DB48D8C91358D83238111292B990FB3
:105970003396E417F507A1F79C85921751F04D85F2
:10598000842F8227582F5095392F322735233111F4
:105990001DC0888D2D8787FD05C09FEF980F81154D
:1059A00061F1988F8C819D81AE81BF814885598539
:1059B0006A857B85840F951FA61FB71F8C839D83E7
:1059C000AE83BF8381E0DF91CF9108958923422385
:1059D000842B8C87EE85E830E0F691E09E0F9E8761
:1059E000EC0FFD2FF11D87871092260181E0809337
:1059F000B3018FEF888F2D87D5CF1092260181E0DC
:105A00008093B301CECFFC01A385B4854C918785EB
:105A1000982F977021E030E001C0220F9A95EAF7A5
:105A2000A82FA695A695A695AE0FBF2FB11D5A9685
:105A30009C915A97558545234115D1F0922B5A9642
:105A40009C938F5F90898917D8F48787848195818B
:105A5000A681B78146895789608D718D840F951F06
:105A6000A61FB71F84839583A683B78381E008951B
:105A7000209592235A969C938F5F9089891728F3DB
:105A8000A085B1858285968595FD14C09FB7F89451
:105A900012962C911297822B12968C939FBF86851B
:105AA0008073896086871092260181E08093B4011B
:105AB00080E008952FB7F89411969C911197982B38
:105AC00012963C911297832B12968C9312971196F3
:105AD0009C932FBFE4CFFC01A385B4858C91968560
